{
  "_format": "hh-sol-artifact-1",
  "contractName": "Lottery",
  "sourceName": "contracts/Lottery.sol",
  "abi": [
    {
      "inputs": [],
      "stateMutability": "nonpayable",
      "type": "constructor"
    },
    {
      "anonymous": false,
      "inputs": [
        {
          "indexed": true,
          "internalType": "uint256",
          "name": "id",
          "type": "uint256"
        },
        {
          "indexed": true,
          "internalType": "address",
          "name": "winner",
          "type": "address"
        },
        {
          "indexed": false,
          "internalType": "uint256",
          "name": "prize",
          "type": "uint256"
        }
      ],
      "name": "LotteryClosed",
      "type": "event"
    },
    {
      "anonymous": false,
      "inputs": [
        {
          "indexed": true,
          "internalType": "uint256",
          "name": "id",
          "type": "uint256"
        },
        {
          "indexed": false,
          "internalType": "uint256",
          "name": "ticketPrice",
          "type": "uint256"
        },
        {
          "indexed": false,
          "internalType": "uint256",
          "name": "totalTickets",
          "type": "uint256"
        }
      ],
      "name": "LotteryCreated",
      "type": "event"
    },
    {
      "anonymous": false,
      "inputs": [
        {
          "indexed": true,
          "internalType": "uint256",
          "name": "lotteryId",
          "type": "uint256"
        },
        {
          "indexed": true,
          "internalType": "uint256",
          "name": "ticketId",
          "type": "uint256"
        },
        {
          "indexed": true,
          "internalType": "address",
          "name": "buyer",
          "type": "address"
        }
      ],
      "name": "LotteryTicketPurchased",
      "type": "event"
    },
    {
      "anonymous": false,
      "inputs": [
        {
          "indexed": true,
          "internalType": "address",
          "name": "previousOwner",
          "type": "address"
        },
        {
          "indexed": true,
          "internalType": "address",
          "name": "newOwner",
          "type": "address"
        }
      ],
      "name": "OwnershipTransferred",
      "type": "event"
    },
    {
      "inputs": [
        {
          "internalType": "uint256",
          "name": "_lotteryId",
          "type": "uint256"
        },
        {
          "internalType": "uint256",
          "name": "_amount",
          "type": "uint256"
        }
      ],
      "name": "buyTickets",
      "outputs": [],
      "stateMutability": "payable",
      "type": "function"
    },
    {
      "inputs": [
        {
          "internalType": "uint256",
          "name": "_lotteryId",
          "type": "uint256"
        }
      ],
      "name": "closeLottery",
      "outputs": [],
      "stateMutability": "nonpayable",
      "type": "function"
    },
    {
      "inputs": [
        {
          "internalType": "uint256",
          "name": "_ticketPrice",
          "type": "uint256"
        },
        {
          "internalType": "uint256",
          "name": "_totalTickets",
          "type": "uint256"
        }
      ],
      "name": "createLottery",
      "outputs": [],
      "stateMutability": "nonpayable",
      "type": "function"
    },
    {
      "inputs": [
        {
          "internalType": "uint256",
          "name": "_lotteryId",
          "type": "uint256"
        },
        {
          "internalType": "uint256",
          "name": "_ticketId",
          "type": "uint256"
        }
      ],
      "name": "getTicketOwner",
      "outputs": [
        {
          "internalType": "address payable",
          "name": "",
          "type": "address"
        }
      ],
      "stateMutability": "view",
      "type": "function"
    },
    {
      "inputs": [
        {
          "internalType": "uint256",
          "name": "",
          "type": "uint256"
        }
      ],
      "name": "lotteries",
      "outputs": [
        {
          "internalType": "uint256",
          "name": "id",
          "type": "uint256"
        },
        {
          "internalType": "uint256",
          "name": "ticketPrice",
          "type": "uint256"
        },
        {
          "internalType": "uint256",
          "name": "totalTickets",
          "type": "uint256"
        },
        {
          "internalType": "uint256",
          "name": "ticketsSold",
          "type": "uint256"
        },
        {
          "internalType": "bool",
          "name": "closed",
          "type": "bool"
        },
        {
          "internalType": "bool",
          "name": "exists",
          "type": "bool"
        },
        {
          "internalType": "address payable",
          "name": "owner",
          "type": "address"
        }
      ],
      "stateMutability": "view",
      "type": "function"
    },
    {
      "inputs": [],
      "name": "lotteryCounter",
      "outputs": [
        {
          "internalType": "uint256",
          "name": "",
          "type": "uint256"
        }
      ],
      "stateMutability": "view",
      "type": "function"
    },
    {
      "inputs": [],
      "name": "owner",
      "outputs": [
        {
          "internalType": "address",
          "name": "",
          "type": "address"
        }
      ],
      "stateMutability": "view",
      "type": "function"
    },
    {
      "inputs": [],
      "name": "renounceOwnership",
      "outputs": [],
      "stateMutability": "nonpayable",
      "type": "function"
    },
    {
      "inputs": [
        {
          "internalType": "uint256",
          "name": "",
          "type": "uint256"
        },
        {
          "internalType": "uint256",
          "name": "",
          "type": "uint256"
        }
      ],
      "name": "ticketOwners",
      "outputs": [
        {
          "internalType": "address payable",
          "name": "",
          "type": "address"
        }
      ],
      "stateMutability": "view",
      "type": "function"
    },
    {
      "inputs": [
        {
          "internalType": "address",
          "name": "newOwner",
          "type": "address"
        }
      ],
      "name": "transferOwnership",
      "outputs": [],
      "stateMutability": "nonpayable",
      "type": "function"
    }
  ],
  "bytecode": "0x608060405234801561001057600080fd5b5061002d61002261003a60201b60201c565b61004260201b60201c565b6000600381905550610106565b600033905090565b60008060009054906101000a900473ffffffffffffffffffffffffffffffffffffffff169050816000806101000a81548173ffffffffffffffffffffffffffffffffffffffff021916908373ffffffffffffffffffffffffffffffffffffffff1602179055508173ffffffffffffffffffffffffffffffffffffffff168173ffffffffffffffffffffffffffffffffffffffff167f8be0079c531659141344cd1fd0a4f28419497f9722a3daafe3b4186f6b6457e060405160405180910390a35050565b61158c806101156000396000f3fe6080604052600436106100915760003560e01c80638627df46116100595780638627df46146101955780638da5cb5b146101b15780639d8ca531146101dc578063f2fde38b14610205578063fe35804e1461022e57610091565b806313965c41146100965780631398e076146100d35780634a4a6b4f146101165780635f773d7f14610141578063715018a61461017e575b600080fd5b3480156100a257600080fd5b506100bd60048036038101906100b89190610e23565b610257565b6040516100ca9190610fff565b60405180910390f35b3480156100df57600080fd5b506100fa60048036038101906100f59190610dfa565b610299565b60405161010d979695949392919061113e565b60405180910390f35b34801561012257600080fd5b5061012b610315565b60405161013891906110fa565b60405180910390f35b34801561014d57600080fd5b5061016860048036038101906101639190610e23565b61031b565b6040516101759190610fff565b60405180910390f35b34801561018a57600080fd5b5061019361036a565b005b6101af60048036038101906101aa9190610e23565b6103f2565b005b3480156101bd57600080fd5b506101c6610670565b6040516101d39190610fe4565b60405180910390f35b3480156101e857600080fd5b5061020360048036038101906101fe9190610dfa565b610699565b005b34801561021157600080fd5b5061022c60048036038101906102279190610dd1565b6109b3565b005b34801561023a57600080fd5b5061025560048036038101906102509190610e23565b610aab565b005b60026020528160005260406000206020528060005260406000206000915091509054906101000a900473ffffffffffffffffffffffffffffffffffffffff1681565b60016020528060005260406000206000915090508060000154908060010154908060020154908060030154908060040160009054906101000a900460ff16908060040160019054906101000a900460ff16908060040160029054906101000a900473ffffffffffffffffffffffffffffffffffffffff16905087565b60035481565b600060026000848152602001908152602001600020600083815260200190815260200160002060009054906101000a900473ffffffffffffffffffffffffffffffffffffffff16905092915050565b610372610c98565b73ffffffffffffffffffffffffffffffffffffffff16610390610670565b73ffffffffffffffffffffffffffffffffffffffff16146103e6576040517f08c379a00000000000000000000000000000000000000000000000000000000081526004016103dd906110ba565b60405180910390fd5b6103f06000610ca0565b565b816001600082815260200190815260200160002060040160019054906101000a900460ff16610456576040517f08c379a000000000000000000000000000000000000000000000000000000000815260040161044d9061107a565b60405180910390fd5b60006001600085815260200190815260200160002090508060040160009054906101000a900460ff16156104bf576040517f08c379a00000000000000000000000000000000000000000000000000000000081526004016104b69061105a565b60405180910390fd5b8281600101546104cf91906111ef565b3414610510576040517f08c379a00000000000000000000000000000000000000000000000000000000081526004016105079061109a565b60405180910390fd5b8281600201541015610557576040517f08c379a000000000000000000000000000000000000000000000000000000000815260040161054e906110da565b60405180910390fd5b60008160020154905060005b84811015610668578180610576906112d7565b92505082600201600081548092919061058e906112d7565b91905055508260030160008154809291906105a890611301565b91905055503360026000888152602001908152602001600020600084815260200190815260200160002060006101000a81548173ffffffffffffffffffffffffffffffffffffffff021916908373ffffffffffffffffffffffffffffffffffffffff1602179055503373ffffffffffffffffffffffffffffffffffffffff1682877fe843cb170145ce4bbfd0b1b9318af7fbb8ee1ff1c915c4a366e48940692870b660405160405180910390a4808061066090611301565b915050610563565b505050505050565b60008060009054906101000a900473ffffffffffffffffffffffffffffffffffffffff16905090565b6106a1610c98565b73ffffffffffffffffffffffffffffffffffffffff166106bf610670565b73ffffffffffffffffffffffffffffffffffffffff1614610715576040517f08c379a000000000000000000000000000000000000000000000000000000000815260040161070c906110ba565b60405180910390fd5b806001600082815260200190815260200160002060040160019054906101000a900460ff16610779576040517f08c379a00000000000000000000000000000000000000000000000000000000081526004016107709061107a565b60405180910390fd5b60006001600084815260200190815260200160002090508060040160009054906101000a900460ff16156107e2576040517f08c379a00000000000000000000000000000000000000000000000000000000081526004016107d99061101a565b60405180910390fd5b600081600201546107f7858460020154610d64565b6108019190611354565b9050600060026000868152602001908152602001600020600083815260200190815260200160002060009054906101000a900473ffffffffffffffffffffffffffffffffffffffff1690506000606460618560020154866001015461086691906111ef565b61087091906111ef565b61087a91906111be565b90506000814761088a9190611249565b905060018560040160006101000a81548160ff0219169083151502179055508273ffffffffffffffffffffffffffffffffffffffff16877f886b7a62c56f3d47dde0efdda460cd43038575c646fc8fb717dc25849f085e78846040516108f091906110fa565b60405180910390a38273ffffffffffffffffffffffffffffffffffffffff166108fc839081150290604051600060405180830381858888f1935050505015801561093e573d6000803e3d6000fd5b508460040160029054906101000a900473ffffffffffffffffffffffffffffffffffffffff1673ffffffffffffffffffffffffffffffffffffffff166108fc829081150290604051600060405180830381858888f193505050501580156109a9573d6000803e3d6000fd5b5050505050505050565b6109bb610c98565b73ffffffffffffffffffffffffffffffffffffffff166109d9610670565b73ffffffffffffffffffffffffffffffffffffffff1614610a2f576040517f08c379a0000000000000000000000000000000000000000000000000000000008152600401610a26906110ba565b60405180910390fd5b600073ffffffffffffffffffffffffffffffffffffffff168173ffffffffffffffffffffffffffffffffffffffff161415610a9f576040517f08c379a0000000000000000000000000000000000000000000000000000000008152600401610a969061103a565b60405180910390fd5b610aa881610ca0565b50565b610ab3610c98565b73ffffffffffffffffffffffffffffffffffffffff16610ad1610670565b73ffffffffffffffffffffffffffffffffffffffff1614610b27576040517f08c379a0000000000000000000000000000000000000000000000000000000008152600401610b1e906110ba565b60405180910390fd5b60036000815480929190610b3a90611301565b91905055506040518060e001604052806003548152602001838152602001828152602001600081526020016000151581526020016001151581526020013373ffffffffffffffffffffffffffffffffffffffff168152506001600060035481526020019081526020016000206000820151816000015560208201518160010155604082015181600201556060820151816003015560808201518160040160006101000a81548160ff02191690831515021790555060a08201518160040160016101000a81548160ff02191690831515021790555060c08201518160040160026101000a81548173ffffffffffffffffffffffffffffffffffffffff021916908373ffffffffffffffffffffffffffffffffffffffff1602179055509050506003547fbcab9af3175c8a9d53b9308a82ee378a84c65b0c22e3dfea2afac802c73a078a8383604051610c8c929190611115565b60405180910390a25050565b600033905090565b60008060009054906101000a900473ffffffffffffffffffffffffffffffffffffffff169050816000806101000a81548173ffffffffffffffffffffffffffffffffffffffff021916908373ffffffffffffffffffffffffffffffffffffffff1602179055508173ffffffffffffffffffffffffffffffffffffffff168173ffffffffffffffffffffffffffffffffffffffff167f8be0079c531659141344cd1fd0a4f28419497f9722a3daafe3b4186f6b6457e060405160405180910390a35050565b600081424485604051602001610d7c93929190610fa7565b6040516020818303038152906040528051906020012060001c610d9f9190611354565b905092915050565b600081359050610db681611528565b92915050565b600081359050610dcb8161153f565b92915050565b600060208284031215610de357600080fd5b6000610df184828501610da7565b91505092915050565b600060208284031215610e0c57600080fd5b6000610e1a84828501610dbc565b91505092915050565b60008060408385031215610e3657600080fd5b6000610e4485828601610dbc565b9250506020610e5585828601610dbc565b9150509250929050565b610e688161128f565b82525050565b610e778161127d565b82525050565b610e86816112a1565b82525050565b6000610e99601a836111ad565b9150610ea4826113e3565b602082019050919050565b6000610ebc6026836111ad565b9150610ec78261140c565b604082019050919050565b6000610edf6012836111ad565b9150610eea8261145b565b602082019050919050565b6000610f026017836111ad565b9150610f0d82611484565b602082019050919050565b6000610f25601f836111ad565b9150610f30826114ad565b602082019050919050565b6000610f486020836111ad565b9150610f53826114d6565b602082019050919050565b6000610f6b601d836111ad565b9150610f76826114ff565b602082019050919050565b610f8a816112cd565b82525050565b610fa1610f9c826112cd565b61134a565b82525050565b6000610fb38286610f90565b602082019150610fc38285610f90565b602082019150610fd38284610f90565b602082019150819050949350505050565b6000602082019050610ff96000830184610e6e565b92915050565b60006020820190506110146000830184610e5f565b92915050565b6000602082019050818103600083015261103381610e8c565b9050919050565b6000602082019050818103600083015261105381610eaf565b9050919050565b6000602082019050818103600083015261107381610ed2565b9050919050565b6000602082019050818103600083015261109381610ef5565b9050919050565b600060208201905081810360008301526110b381610f18565b9050919050565b600060208201905081810360008301526110d381610f3b565b9050919050565b600060208201905081810360008301526110f381610f5e565b9050919050565b600060208201905061110f6000830184610f81565b92915050565b600060408201905061112a6000830185610f81565b6111376020830184610f81565b9392505050565b600060e082019050611153600083018a610f81565b6111606020830189610f81565b61116d6040830188610f81565b61117a6060830187610f81565b6111876080830186610e7d565b61119460a0830185610e7d565b6111a160c0830184610e5f565b98975050505050505050565b600082825260208201905092915050565b60006111c9826112cd565b91506111d4836112cd565b9250826111e4576111e36113b4565b5b828204905092915050565b60006111fa826112cd565b9150611205836112cd565b9250817fffffffffffffffffffffffffffffffffffffffffffffffffffffffffffffffff048311821515161561123e5761123d611385565b5b828202905092915050565b6000611254826112cd565b915061125f836112cd565b92508282101561127257611271611385565b5b828203905092915050565b6000611288826112ad565b9050919050565b600061129a826112ad565b9050919050565b60008115159050919050565b600073ffffffffffffffffffffffffffffffffffffffff82169050919050565b6000819050919050565b60006112e2826112cd565b915060008214156112f6576112f5611385565b5b600182039050919050565b600061130c826112cd565b91507fffffffffffffffffffffffffffffffffffffffffffffffffffffffffffffffff82141561133f5761133e611385565b5b600182019050919050565b6000819050919050565b600061135f826112cd565b915061136a836112cd565b92508261137a576113796113b4565b5b828206905092915050565b7f4e487b7100000000000000000000000000000000000000000000000000000000600052601160045260246000fd5b7f4e487b7100000000000000000000000000000000000000000000000000000000600052601260045260246000fd5b7f4c6f747465727920697320616c726561647920636c6f7365642e000000000000600082015250565b7f4f776e61626c653a206e6577206f776e657220697320746865207a65726f206160008201527f6464726573730000000000000000000000000000000000000000000000000000602082015250565b7f4c6f747465727920697320636c6f7365642e0000000000000000000000000000600082015250565b7f4c6f747465727920646f6573206e6f742065786973742e000000000000000000600082015250565b7f496e636f727265637420616d6f756e74206f662065746865722073656e742e00600082015250565b7f4f776e61626c653a2063616c6c6572206973206e6f7420746865206f776e6572600082015250565b7f4e6f7420656e6f756768207469636b65747320617661696c61626c652e000000600082015250565b6115318161127d565b811461153c57600080fd5b50565b611548816112cd565b811461155357600080fd5b5056fea2646970667358221220a9a30e471c488ec41f42682f4f014410f0cd952fc4e0039445230de5ba9f8da664736f6c63430008040033",
  "linkReferences": {},
  "deployedLinkReferences": {}
}