{
  "_format": "hh-sol-artifact-1",
  "contractName": "Lottery",
  "sourceName": "contracts/Lottery.sol",
  "abi": [
    {
      "inputs": [],
      "stateMutability": "nonpayable",
      "type": "constructor"
    },
    {
      "anonymous": false,
      "inputs": [
        {
          "indexed": true,
          "internalType": "uint256",
          "name": "id",
          "type": "uint256"
        },
        {
          "indexed": true,
          "internalType": "address",
          "name": "winner",
          "type": "address"
        },
        {
          "indexed": false,
          "internalType": "uint256",
          "name": "prize",
          "type": "uint256"
        }
      ],
      "name": "LotteryClosed",
      "type": "event"
    },
    {
      "anonymous": false,
      "inputs": [
        {
          "indexed": true,
          "internalType": "uint256",
          "name": "id",
          "type": "uint256"
        },
        {
          "indexed": false,
          "internalType": "uint256",
          "name": "ticketPrice",
          "type": "uint256"
        },
        {
          "indexed": false,
          "internalType": "uint256",
          "name": "totalTickets",
          "type": "uint256"
        }
      ],
      "name": "LotteryCreated",
      "type": "event"
    },
    {
      "anonymous": false,
      "inputs": [
        {
          "indexed": true,
          "internalType": "uint256",
          "name": "lotteryId",
          "type": "uint256"
        },
        {
          "indexed": true,
          "internalType": "uint256",
          "name": "ticketId",
          "type": "uint256"
        },
        {
          "indexed": true,
          "internalType": "address",
          "name": "buyer",
          "type": "address"
        }
      ],
      "name": "LotteryTicketPurchased",
      "type": "event"
    },
    {
      "anonymous": false,
      "inputs": [
        {
          "indexed": true,
          "internalType": "address",
          "name": "previousOwner",
          "type": "address"
        },
        {
          "indexed": true,
          "internalType": "address",
          "name": "newOwner",
          "type": "address"
        }
      ],
      "name": "OwnershipTransferred",
      "type": "event"
    },
    {
      "inputs": [
        {
          "internalType": "uint256",
          "name": "_lotteryId",
          "type": "uint256"
        },
        {
          "internalType": "uint256",
          "name": "_amount",
          "type": "uint256"
        }
      ],
      "name": "buyTickets",
      "outputs": [],
      "stateMutability": "payable",
      "type": "function"
    },
    {
      "inputs": [
        {
          "internalType": "uint256",
          "name": "_lotteryId",
          "type": "uint256"
        }
      ],
      "name": "closeLottery",
      "outputs": [],
      "stateMutability": "nonpayable",
      "type": "function"
    },
    {
      "inputs": [
        {
          "internalType": "uint256",
          "name": "_ticketPrice",
          "type": "uint256"
        },
        {
          "internalType": "uint256",
          "name": "_totalTickets",
          "type": "uint256"
        }
      ],
      "name": "createLottery",
      "outputs": [],
      "stateMutability": "nonpayable",
      "type": "function"
    },
    {
      "inputs": [
        {
          "internalType": "uint256",
          "name": "",
          "type": "uint256"
        }
      ],
      "name": "lotteries",
      "outputs": [
        {
          "internalType": "uint256",
          "name": "id",
          "type": "uint256"
        },
        {
          "internalType": "uint256",
          "name": "ticketPrice",
          "type": "uint256"
        },
        {
          "internalType": "uint256",
          "name": "totalTickets",
          "type": "uint256"
        },
        {
          "internalType": "uint256",
          "name": "ticketsSold",
          "type": "uint256"
        },
        {
          "internalType": "uint256",
          "name": "ticketId",
          "type": "uint256"
        },
        {
          "internalType": "bool",
          "name": "closed",
          "type": "bool"
        },
        {
          "internalType": "bool",
          "name": "exists",
          "type": "bool"
        },
        {
          "internalType": "address payable",
          "name": "owner",
          "type": "address"
        }
      ],
      "stateMutability": "view",
      "type": "function"
    },
    {
      "inputs": [],
      "name": "lotteryCounter",
      "outputs": [
        {
          "internalType": "uint256",
          "name": "",
          "type": "uint256"
        }
      ],
      "stateMutability": "view",
      "type": "function"
    },
    {
      "inputs": [
        {
          "internalType": "uint256",
          "name": "",
          "type": "uint256"
        }
      ],
      "name": "lotteryWinners",
      "outputs": [
        {
          "internalType": "address",
          "name": "",
          "type": "address"
        }
      ],
      "stateMutability": "view",
      "type": "function"
    },
    {
      "inputs": [],
      "name": "owner",
      "outputs": [
        {
          "internalType": "address",
          "name": "",
          "type": "address"
        }
      ],
      "stateMutability": "view",
      "type": "function"
    },
    {
      "inputs": [
        {
          "internalType": "uint256",
          "name": "",
          "type": "uint256"
        }
      ],
      "name": "paidOut",
      "outputs": [
        {
          "internalType": "uint256",
          "name": "",
          "type": "uint256"
        }
      ],
      "stateMutability": "view",
      "type": "function"
    },
    {
      "inputs": [],
      "name": "renounceOwnership",
      "outputs": [],
      "stateMutability": "nonpayable",
      "type": "function"
    },
    {
      "inputs": [
        {
          "internalType": "uint256",
          "name": "",
          "type": "uint256"
        },
        {
          "internalType": "uint256",
          "name": "",
          "type": "uint256"
        }
      ],
      "name": "ticketOwners",
      "outputs": [
        {
          "internalType": "address payable",
          "name": "",
          "type": "address"
        }
      ],
      "stateMutability": "view",
      "type": "function"
    },
    {
      "inputs": [
        {
          "internalType": "address",
          "name": "newOwner",
          "type": "address"
        }
      ],
      "name": "transferOwnership",
      "outputs": [],
      "stateMutability": "nonpayable",
      "type": "function"
    }
  ],
  "bytecode": "0x608060405234801561001057600080fd5b5061002d61002261003a60201b60201c565b61004260201b60201c565b6000600581905550610106565b600033905090565b60008060009054906101000a900473ffffffffffffffffffffffffffffffffffffffff169050816000806101000a81548173ffffffffffffffffffffffffffffffffffffffff021916908373ffffffffffffffffffffffffffffffffffffffff1602179055508173ffffffffffffffffffffffffffffffffffffffff168173ffffffffffffffffffffffffffffffffffffffff167f8be0079c531659141344cd1fd0a4f28419497f9722a3daafe3b4186f6b6457e060405160405180910390a35050565b61166b806101156000396000f3fe60806040526004361061009c5760003560e01c80638da5cb5b116100645780638da5cb5b146101805780639d8ca531146101ab578063d7a1a5b9146101d4578063f02dec3b14610211578063f2fde38b1461024e578063fe35804e146102775761009c565b806313965c41146100a15780631398e076146100de5780634a4a6b4f14610122578063715018a61461014d5780638627df4614610164575b600080fd5b3480156100ad57600080fd5b506100c860048036038101906100c39190610ef3565b6102a0565b6040516100d591906110cf565b60405180910390f35b3480156100ea57600080fd5b5061010560048036038101906101009190610eca565b6102e2565b60405161011998979695949392919061120e565b60405180910390f35b34801561012e57600080fd5b50610137610364565b60405161014491906111ca565b60405180910390f35b34801561015957600080fd5b5061016261036a565b005b61017e60048036038101906101799190610ef3565b6103f2565b005b34801561018c57600080fd5b50610195610679565b6040516101a291906110b4565b60405180910390f35b3480156101b757600080fd5b506101d260048036038101906101cd9190610eca565b6106a2565b005b3480156101e057600080fd5b506101fb60048036038101906101f69190610eca565b610a26565b60405161020891906110b4565b60405180910390f35b34801561021d57600080fd5b5061023860048036038101906102339190610eca565b610a59565b60405161024591906111ca565b60405180910390f35b34801561025a57600080fd5b5061027560048036038101906102709190610ea1565b610a71565b005b34801561028357600080fd5b5061029e60048036038101906102999190610ef3565b610b69565b005b60026020528160005260406000206020528060005260406000206000915091509054906101000a900473ffffffffffffffffffffffffffffffffffffffff1681565b60016020528060005260406000206000915090508060000154908060010154908060020154908060030154908060040154908060050160009054906101000a900460ff16908060050160019054906101000a900460ff16908060050160029054906101000a900473ffffffffffffffffffffffffffffffffffffffff16905088565b60055481565b610372610d68565b73ffffffffffffffffffffffffffffffffffffffff16610390610679565b73ffffffffffffffffffffffffffffffffffffffff16146103e6576040517f08c379a00000000000000000000000000000000000000000000000000000000081526004016103dd9061118a565b60405180910390fd5b6103f06000610d70565b565b816001600082815260200190815260200160002060050160019054906101000a900460ff16610456576040517f08c379a000000000000000000000000000000000000000000000000000000000815260040161044d9061114a565b60405180910390fd5b60006001600085815260200190815260200160002090508060050160009054906101000a900460ff16156104bf576040517f08c379a00000000000000000000000000000000000000000000000000000000081526004016104b69061112a565b60405180910390fd5b8281600101546104cf91906112ce565b3414610510576040517f08c379a00000000000000000000000000000000000000000000000000000000081526004016105079061116a565b60405180910390fd5b8281600201541015610557576040517f08c379a000000000000000000000000000000000000000000000000000000000815260040161054e906111aa565b60405180910390fd5b60008160040154905060005b8481101561066857826002016000815480929190610580906113b6565b919050555082600301600081548092919061059a906113e0565b91905055503360026000888152602001908152602001600020600084815260200190815260200160002060006101000a81548173ffffffffffffffffffffffffffffffffffffffff021916908373ffffffffffffffffffffffffffffffffffffffff160217905550818061060d906113e0565b9250503373ffffffffffffffffffffffffffffffffffffffff1682877fe843cb170145ce4bbfd0b1b9318af7fbb8ee1ff1c915c4a366e48940692870b660405160405180910390a48080610660906113e0565b915050610563565b508082600401819055505050505050565b60008060009054906101000a900473ffffffffffffffffffffffffffffffffffffffff16905090565b6106aa610d68565b73ffffffffffffffffffffffffffffffffffffffff166106c8610679565b73ffffffffffffffffffffffffffffffffffffffff161461071e576040517f08c379a00000000000000000000000000000000000000000000000000000000081526004016107159061118a565b60405180910390fd5b806001600082815260200190815260200160002060050160019054906101000a900460ff16610782576040517f08c379a00000000000000000000000000000000000000000000000000000000081526004016107799061114a565b60405180910390fd5b60006001600084815260200190815260200160002090508060050160009054906101000a900460ff16156107eb576040517f08c379a00000000000000000000000000000000000000000000000000000000081526004016107e2906110ea565b60405180910390fd5b60008160020154610800858460020154610e34565b61080a9190611433565b9050600060026000868152602001908152602001600020600083815260200190815260200160002060009054906101000a900473ffffffffffffffffffffffffffffffffffffffff1690506000606460618560020154866001015461086f91906112ce565b61087991906112ce565b610883919061129d565b9050600081476108939190611328565b9050826003600089815260200190815260200160002060006101000a81548173ffffffffffffffffffffffffffffffffffffffff021916908373ffffffffffffffffffffffffffffffffffffffff16021790555081600460008981526020019081526020016000208190555060018560050160006101000a81548160ff0219169083151502179055508273ffffffffffffffffffffffffffffffffffffffff16877f886b7a62c56f3d47dde0efdda460cd43038575c646fc8fb717dc25849f085e788460405161096391906111ca565b60405180910390a38273ffffffffffffffffffffffffffffffffffffffff166108fc839081150290604051600060405180830381858888f193505050501580156109b1573d6000803e3d6000fd5b508460050160029054906101000a900473ffffffffffffffffffffffffffffffffffffffff1673ffffffffffffffffffffffffffffffffffffffff166108fc829081150290604051600060405180830381858888f19350505050158015610a1c573d6000803e3d6000fd5b5050505050505050565b60036020528060005260406000206000915054906101000a900473ffffffffffffffffffffffffffffffffffffffff1681565b60046020528060005260406000206000915090505481565b610a79610d68565b73ffffffffffffffffffffffffffffffffffffffff16610a97610679565b73ffffffffffffffffffffffffffffffffffffffff1614610aed576040517f08c379a0000000000000000000000000000000000000000000000000000000008152600401610ae49061118a565b60405180910390fd5b600073ffffffffffffffffffffffffffffffffffffffff168173ffffffffffffffffffffffffffffffffffffffff161415610b5d576040517f08c379a0000000000000000000000000000000000000000000000000000000008152600401610b549061110a565b60405180910390fd5b610b6681610d70565b50565b610b71610d68565b73ffffffffffffffffffffffffffffffffffffffff16610b8f610679565b73ffffffffffffffffffffffffffffffffffffffff1614610be5576040517f08c379a0000000000000000000000000000000000000000000000000000000008152600401610bdc9061118a565b60405180910390fd5b60056000815480929190610bf8906113e0565b9190505550604051806101000160405280600554815260200183815260200182815260200160008152602001600081526020016000151581526020016001151581526020013373ffffffffffffffffffffffffffffffffffffffff16815250600160006005548152602001908152602001600020600082015181600001556020820151816001015560408201518160020155606082015181600301556080820151816004015560a08201518160050160006101000a81548160ff02191690831515021790555060c08201518160050160016101000a81548160ff02191690831515021790555060e08201518160050160026101000a81548173ffffffffffffffffffffffffffffffffffffffff021916908373ffffffffffffffffffffffffffffffffffffffff1602179055509050506005547fbcab9af3175c8a9d53b9308a82ee378a84c65b0c22e3dfea2afac802c73a078a8383604051610d5c9291906111e5565b60405180910390a25050565b600033905090565b60008060009054906101000a900473ffffffffffffffffffffffffffffffffffffffff169050816000806101000a81548173ffffffffffffffffffffffffffffffffffffffff021916908373ffffffffffffffffffffffffffffffffffffffff1602179055508173ffffffffffffffffffffffffffffffffffffffff168173ffffffffffffffffffffffffffffffffffffffff167f8be0079c531659141344cd1fd0a4f28419497f9722a3daafe3b4186f6b6457e060405160405180910390a35050565b600081424485604051602001610e4c93929190611077565b6040516020818303038152906040528051906020012060001c610e6f9190611433565b905092915050565b600081359050610e8681611607565b92915050565b600081359050610e9b8161161e565b92915050565b600060208284031215610eb357600080fd5b6000610ec184828501610e77565b91505092915050565b600060208284031215610edc57600080fd5b6000610eea84828501610e8c565b91505092915050565b60008060408385031215610f0657600080fd5b6000610f1485828601610e8c565b9250506020610f2585828601610e8c565b9150509250929050565b610f388161136e565b82525050565b610f478161135c565b82525050565b610f5681611380565b82525050565b6000610f69601a8361128c565b9150610f74826114c2565b602082019050919050565b6000610f8c60268361128c565b9150610f97826114eb565b604082019050919050565b6000610faf60128361128c565b9150610fba8261153a565b602082019050919050565b6000610fd260178361128c565b9150610fdd82611563565b602082019050919050565b6000610ff5601f8361128c565b91506110008261158c565b602082019050919050565b600061101860208361128c565b9150611023826115b5565b602082019050919050565b600061103b601d8361128c565b9150611046826115de565b602082019050919050565b61105a816113ac565b82525050565b61107161106c826113ac565b611429565b82525050565b60006110838286611060565b6020820191506110938285611060565b6020820191506110a38284611060565b602082019150819050949350505050565b60006020820190506110c96000830184610f3e565b92915050565b60006020820190506110e46000830184610f2f565b92915050565b6000602082019050818103600083015261110381610f5c565b9050919050565b6000602082019050818103600083015261112381610f7f565b9050919050565b6000602082019050818103600083015261114381610fa2565b9050919050565b6000602082019050818103600083015261116381610fc5565b9050919050565b6000602082019050818103600083015261118381610fe8565b9050919050565b600060208201905081810360008301526111a38161100b565b9050919050565b600060208201905081810360008301526111c38161102e565b9050919050565b60006020820190506111df6000830184611051565b92915050565b60006040820190506111fa6000830185611051565b6112076020830184611051565b9392505050565b600061010082019050611224600083018b611051565b611231602083018a611051565b61123e6040830189611051565b61124b6060830188611051565b6112586080830187611051565b61126560a0830186610f4d565b61127260c0830185610f4d565b61127f60e0830184610f2f565b9998505050505050505050565b600082825260208201905092915050565b60006112a8826113ac565b91506112b3836113ac565b9250826112c3576112c2611493565b5b828204905092915050565b60006112d9826113ac565b91506112e4836113ac565b9250817fffffffffffffffffffffffffffffffffffffffffffffffffffffffffffffffff048311821515161561131d5761131c611464565b5b828202905092915050565b6000611333826113ac565b915061133e836113ac565b92508282101561135157611350611464565b5b828203905092915050565b60006113678261138c565b9050919050565b60006113798261138c565b9050919050565b60008115159050919050565b600073ffffffffffffffffffffffffffffffffffffffff82169050919050565b6000819050919050565b60006113c1826113ac565b915060008214156113d5576113d4611464565b5b600182039050919050565b60006113eb826113ac565b91507fffffffffffffffffffffffffffffffffffffffffffffffffffffffffffffffff82141561141e5761141d611464565b5b600182019050919050565b6000819050919050565b600061143e826113ac565b9150611449836113ac565b92508261145957611458611493565b5b828206905092915050565b7f4e487b7100000000000000000000000000000000000000000000000000000000600052601160045260246000fd5b7f4e487b7100000000000000000000000000000000000000000000000000000000600052601260045260246000fd5b7f4c6f747465727920697320616c726561647920636c6f7365642e000000000000600082015250565b7f4f776e61626c653a206e6577206f776e657220697320746865207a65726f206160008201527f6464726573730000000000000000000000000000000000000000000000000000602082015250565b7f4c6f747465727920697320636c6f7365642e0000000000000000000000000000600082015250565b7f4c6f747465727920646f6573206e6f742065786973742e000000000000000000600082015250565b7f496e636f727265637420616d6f756e74206f662065746865722073656e742e00600082015250565b7f4f776e61626c653a2063616c6c6572206973206e6f7420746865206f776e6572600082015250565b7f4e6f7420656e6f756768207469636b65747320617661696c61626c652e000000600082015250565b6116108161135c565b811461161b57600080fd5b50565b611627816113ac565b811461163257600080fd5b5056fea26469706673582212205b787de4a24b70f7953692244f22432214918b18858ae0f3ce579a8af9bbeae264736f6c63430008040033",
  "linkReferences": {},
  "deployedLinkReferences": {}
}